{
  "contractName": "VerifyAuco",
  "abi": [
    {
      "inputs": [
        {
          "internalType": "uint256",
          "name": "",
          "type": "uint256"
        }
      ],
      "name": "documentIds",
      "outputs": [
        {
          "internalType": "string",
          "name": "",
          "type": "string"
        }
      ],
      "stateMutability": "view",
      "type": "function",
      "constant": true
    },
    {
      "inputs": [
        {
          "internalType": "string",
          "name": "id",
          "type": "string"
        },
        {
          "internalType": "string",
          "name": "code",
          "type": "string"
        },
        {
          "internalType": "string",
          "name": "data",
          "type": "string"
        }
      ],
      "name": "setTrx",
      "outputs": [],
      "stateMutability": "nonpayable",
      "type": "function"
    },
    {
      "inputs": [
        {
          "internalType": "string",
          "name": "id",
          "type": "string"
        }
      ],
      "name": "getTrx",
      "outputs": [
        {
          "internalType": "string",
          "name": "",
          "type": "string"
        },
        {
          "internalType": "string",
          "name": "",
          "type": "string"
        }
      ],
      "stateMutability": "view",
      "type": "function",
      "constant": true
    }
  ],
  "bytecode": "0x608060405234801561001057600080fd5b50610914806100206000396000f3fe608060405234801561001057600080fd5b50600436106100415760003560e01c80631991791514610046578063ad7194ae14610076578063eeaf3028146100a7575b600080fd5b610060600480360381019061005b919061043c565b6100c3565b60405161006d9190610502565b60405180910390f35b610090600480360381019061008b9190610659565b61016f565b60405161009e9291906106a2565b60405180910390f35b6100c160048036038101906100bc9190610739565b6102bd565b005b600181815481106100d357600080fd5b9060005260206000200160009150905080546100ee9061081c565b80601f016020809104026020016040519081016040528092919081815260200182805461011a9061081c565b80156101675780601f1061013c57610100808354040283529160200191610167565b820191906000526020600020905b81548152906001019060200180831161014a57829003601f168201915b505050505081565b606080600080846040516101839190610889565b9081526020016040518091039020905080600001816001018180546101a79061081c565b80601f01602080910402602001604051908101604052809291908181526020018280546101d39061081c565b80156102205780601f106101f557610100808354040283529160200191610220565b820191906000526020600020905b81548152906001019060200180831161020357829003601f168201915b505050505091508080546102339061081c565b80601f016020809104026020016040519081016040528092919081815260200182805461025f9061081c565b80156102ac5780601f10610281576101008083540402835291602001916102ac565b820191906000526020600020905b81548152906001019060200180831161028f57829003601f168201915b505050505090509250925050915091565b60008087876040516102d09291906108c5565b9081526020016040518091039020905084848260000191906102f392919061034f565b50828282600101919061030792919061034f565b50600187879091806001815401808255809150506001900390600052602060002001600090919290919290919290919250919061034592919061034f565b5050505050505050565b82805461035b9061081c565b90600052602060002090601f01602090048101928261037d57600085556103c4565b82601f1061039657803560ff19168380011785556103c4565b828001600101855582156103c4579182015b828111156103c35782358255916020019190600101906103a8565b5b5090506103d191906103d5565b5090565b5b808211156103ee5760008160009055506001016103d6565b5090565b6000604051905090565b600080fd5b600080fd5b6000819050919050565b61041981610406565b811461042457600080fd5b50565b60008135905061043681610410565b92915050565b600060208284031215610452576104516103fc565b5b600061046084828501610427565b91505092915050565b600081519050919050565b600082825260208201905092915050565b60005b838110156104a3578082015181840152602081019050610488565b838111156104b2576000848401525b50505050565b6000601f19601f8301169050919050565b60006104d482610469565b6104de8185610474565b93506104ee818560208601610485565b6104f7816104b8565b840191505092915050565b6000602082019050818103600083015261051c81846104c9565b905092915050565b600080fd5b600080fd5b7f4e487b7100000000000000000000000000000000000000000000000000000000600052604160045260246000fd5b610566826104b8565b810181811067ffffffffffffffff821117156105855761058461052e565b5b80604052505050565b60006105986103f2565b90506105a4828261055d565b919050565b600067ffffffffffffffff8211156105c4576105c361052e565b5b6105cd826104b8565b9050602081019050919050565b82818337600083830152505050565b60006105fc6105f7846105a9565b61058e565b90508281526020810184848401111561061857610617610529565b5b6106238482856105da565b509392505050565b600082601f8301126106405761063f610524565b5b81356106508482602086016105e9565b91505092915050565b60006020828403121561066f5761066e6103fc565b5b600082013567ffffffffffffffff81111561068d5761068c610401565b5b6106998482850161062b565b91505092915050565b600060408201905081810360008301526106bc81856104c9565b905081810360208301526106d081846104c9565b90509392505050565b600080fd5b600080fd5b60008083601f8401126106f9576106f8610524565b5b8235905067ffffffffffffffff811115610716576107156106d9565b5b602083019150836001820283011115610732576107316106de565b5b9250929050565b60008060008060008060608789031215610756576107556103fc565b5b600087013567ffffffffffffffff81111561077457610773610401565b5b61078089828a016106e3565b9650965050602087013567ffffffffffffffff8111156107a3576107a2610401565b5b6107af89828a016106e3565b9450945050604087013567ffffffffffffffff8111156107d2576107d1610401565b5b6107de89828a016106e3565b92509250509295509295509295565b7f4e487b7100000000000000000000000000000000000000000000000000000000600052602260045260246000fd5b6000600282049050600182168061083457607f821691505b602082108103610847576108466107ed565b5b50919050565b600081905092915050565b600061086382610469565b61086d818561084d565b935061087d818560208601610485565b80840191505092915050565b60006108958284610858565b915081905092915050565b60006108ac838561084d565b93506108b98385846105da565b82840190509392505050565b60006108d28284866108a0565b9150819050939250505056fea2646970667358221220f991c2c1c7dae21ba4f5fdf5dd29d756c17e3be6c1792bd62dd8fd9a9b24de6964736f6c634300080d0033",
  "immutableReferences": {},
  "source": "// SPDX-License-Identifier: MIT\npragma solidity ^0.8.13;\n\ncontract VerifyAuco {\n  struct document {\n    string code;\n    string data;\n  }\n  mapping(string => document) documents;\n  string[] public documentIds;\n\n  function setTrx(string calldata id, string calldata code, string calldata data) external {\n        document storage newDocument = documents[id];\n        newDocument.code = code;\n        newDocument.data = data;\n        documentIds.push(id);\n  }\n\n  function getTrx(string memory id) public view returns (string memory, string memory) {\n        document storage d = documents[id];\n        return (d.code, d.data);\n  }\n}\n",
  "sourcePath": "/Users/alejandro/Workspace/MiContrato/ac-polygon/contracts/VerifyAuco.sol",
  "compiler": {
    "name": "solc",
    "version": "0.8.13+commit.abaa5c0e.Emscripten.clang"
  },
  "schemaVersion": "3.4.10",
  "updatedAt": "2022-10-28T17:59:54.798Z",
  "networkType": "ethereum",
  "devdoc": {
    "kind": "dev",
    "methods": {},
    "version": 1
  },
  "userdoc": {
    "kind": "user",
    "methods": {},
    "version": 1
  }
}